{
  "contractName": "Collectible",
  "abi": [
    {
      "inputs": [
        {
          "internalType": "address",
          "name": "_marketplaceContract",
          "type": "address"
        }
      ],
      "stateMutability": "nonpayable",
      "type": "constructor"
    },
    {
      "anonymous": false,
      "inputs": [
        {
          "indexed": true,
          "internalType": "address",
          "name": "owner",
          "type": "address"
        },
        {
          "indexed": true,
          "internalType": "address",
          "name": "approved",
          "type": "address"
        },
        {
          "indexed": true,
          "internalType": "uint256",
          "name": "tokenId",
          "type": "uint256"
        }
      ],
      "name": "Approval",
      "type": "event"
    },
    {
      "anonymous": false,
      "inputs": [
        {
          "indexed": true,
          "internalType": "address",
          "name": "owner",
          "type": "address"
        },
        {
          "indexed": true,
          "internalType": "address",
          "name": "operator",
          "type": "address"
        },
        {
          "indexed": false,
          "internalType": "bool",
          "name": "approved",
          "type": "bool"
        }
      ],
      "name": "ApprovalForAll",
      "type": "event"
    },
    {
      "anonymous": false,
      "inputs": [
        {
          "indexed": false,
          "internalType": "uint256",
          "name": "",
          "type": "uint256"
        }
      ],
      "name": "NFTMinted",
      "type": "event"
    },
    {
      "anonymous": false,
      "inputs": [
        {
          "indexed": true,
          "internalType": "address",
          "name": "from",
          "type": "address"
        },
        {
          "indexed": true,
          "internalType": "address",
          "name": "to",
          "type": "address"
        },
        {
          "indexed": true,
          "internalType": "uint256",
          "name": "tokenId",
          "type": "uint256"
        }
      ],
      "name": "Transfer",
      "type": "event"
    },
    {
      "inputs": [
        {
          "internalType": "address",
          "name": "to",
          "type": "address"
        },
        {
          "internalType": "uint256",
          "name": "tokenId",
          "type": "uint256"
        }
      ],
      "name": "approve",
      "outputs": [],
      "stateMutability": "nonpayable",
      "type": "function"
    },
    {
      "inputs": [
        {
          "internalType": "address",
          "name": "owner",
          "type": "address"
        }
      ],
      "name": "balanceOf",
      "outputs": [
        {
          "internalType": "uint256",
          "name": "",
          "type": "uint256"
        }
      ],
      "stateMutability": "view",
      "type": "function",
      "constant": true
    },
    {
      "inputs": [
        {
          "internalType": "uint256",
          "name": "tokenId",
          "type": "uint256"
        }
      ],
      "name": "getApproved",
      "outputs": [
        {
          "internalType": "address",
          "name": "",
          "type": "address"
        }
      ],
      "stateMutability": "view",
      "type": "function",
      "constant": true
    },
    {
      "inputs": [
        {
          "internalType": "address",
          "name": "owner",
          "type": "address"
        },
        {
          "internalType": "address",
          "name": "operator",
          "type": "address"
        }
      ],
      "name": "isApprovedForAll",
      "outputs": [
        {
          "internalType": "bool",
          "name": "",
          "type": "bool"
        }
      ],
      "stateMutability": "view",
      "type": "function",
      "constant": true
    },
    {
      "inputs": [],
      "name": "name",
      "outputs": [
        {
          "internalType": "string",
          "name": "",
          "type": "string"
        }
      ],
      "stateMutability": "view",
      "type": "function",
      "constant": true
    },
    {
      "inputs": [
        {
          "internalType": "uint256",
          "name": "tokenId",
          "type": "uint256"
        }
      ],
      "name": "ownerOf",
      "outputs": [
        {
          "internalType": "address",
          "name": "",
          "type": "address"
        }
      ],
      "stateMutability": "view",
      "type": "function",
      "constant": true
    },
    {
      "inputs": [
        {
          "internalType": "address",
          "name": "from",
          "type": "address"
        },
        {
          "internalType": "address",
          "name": "to",
          "type": "address"
        },
        {
          "internalType": "uint256",
          "name": "tokenId",
          "type": "uint256"
        }
      ],
      "name": "safeTransferFrom",
      "outputs": [],
      "stateMutability": "nonpayable",
      "type": "function"
    },
    {
      "inputs": [
        {
          "internalType": "address",
          "name": "from",
          "type": "address"
        },
        {
          "internalType": "address",
          "name": "to",
          "type": "address"
        },
        {
          "internalType": "uint256",
          "name": "tokenId",
          "type": "uint256"
        },
        {
          "internalType": "bytes",
          "name": "data",
          "type": "bytes"
        }
      ],
      "name": "safeTransferFrom",
      "outputs": [],
      "stateMutability": "nonpayable",
      "type": "function"
    },
    {
      "inputs": [
        {
          "internalType": "address",
          "name": "operator",
          "type": "address"
        },
        {
          "internalType": "bool",
          "name": "approved",
          "type": "bool"
        }
      ],
      "name": "setApprovalForAll",
      "outputs": [],
      "stateMutability": "nonpayable",
      "type": "function"
    },
    {
      "inputs": [
        {
          "internalType": "bytes4",
          "name": "interfaceId",
          "type": "bytes4"
        }
      ],
      "name": "supportsInterface",
      "outputs": [
        {
          "internalType": "bool",
          "name": "",
          "type": "bool"
        }
      ],
      "stateMutability": "view",
      "type": "function",
      "constant": true
    },
    {
      "inputs": [],
      "name": "symbol",
      "outputs": [
        {
          "internalType": "string",
          "name": "",
          "type": "string"
        }
      ],
      "stateMutability": "view",
      "type": "function",
      "constant": true
    },
    {
      "inputs": [
        {
          "internalType": "uint256",
          "name": "tokenId",
          "type": "uint256"
        }
      ],
      "name": "tokenURI",
      "outputs": [
        {
          "internalType": "string",
          "name": "",
          "type": "string"
        }
      ],
      "stateMutability": "view",
      "type": "function",
      "constant": true
    },
    {
      "inputs": [
        {
          "internalType": "address",
          "name": "from",
          "type": "address"
        },
        {
          "internalType": "address",
          "name": "to",
          "type": "address"
        },
        {
          "internalType": "uint256",
          "name": "tokenId",
          "type": "uint256"
        }
      ],
      "name": "transferFrom",
      "outputs": [],
      "stateMutability": "nonpayable",
      "type": "function"
    },
    {
      "inputs": [
        {
          "internalType": "string",
          "name": "_tokenURI",
          "type": "string"
        }
      ],
      "name": "mint",
      "outputs": [],
      "stateMutability": "nonpayable",
      "type": "function"
    }
  ],
  "bytecode": "0x60806040523480156200001157600080fd5b506040516200302e3803806200302e83398181016040528101906200003791906200017b565b6040518060400160405280600b81526020017f436f6c6c65637469626c650000000000000000000000000000000000000000008152506040518060400160405280600381526020017f434f4c00000000000000000000000000000000000000000000000000000000008152508160009081620000b4919062000427565b508060019081620000c6919062000427565b50505080600860006101000a81548173ffffffffffffffffffffffffffffffffffffffff021916908373ffffffffffffffffffffffffffffffffffffffff160217905550506200050e565b600080fd5b600073ffffffffffffffffffffffffffffffffffffffff82169050919050565b6000620001438262000116565b9050919050565b620001558162000136565b81146200016157600080fd5b50565b60008151905062000175816200014a565b92915050565b60006020828403121562000194576200019362000111565b5b6000620001a48482850162000164565b91505092915050565b600081519050919050565b7f4e487b7100000000000000000000000000000000000000000000000000000000600052604160045260246000fd5b7f4e487b7100000000000000000000000000000000000000000000000000000000600052602260045260246000fd5b600060028204905060018216806200022f57607f821691505b602082108103620002455762000244620001e7565b5b50919050565b60008190508160005260206000209050919050565b60006020601f8301049050919050565b600082821b905092915050565b600060088302620002af7fffffffffffffffffffffffffffffffffffffffffffffffffffffffffffffffff8262000270565b620002bb868362000270565b95508019841693508086168417925050509392505050565b6000819050919050565b6000819050919050565b60006200030862000302620002fc84620002d3565b620002dd565b620002d3565b9050919050565b6000819050919050565b6200032483620002e7565b6200033c62000333826200030f565b8484546200027d565b825550505050565b600090565b6200035362000344565b6200036081848462000319565b505050565b5b8181101562000388576200037c60008262000349565b60018101905062000366565b5050565b601f821115620003d757620003a1816200024b565b620003ac8462000260565b81016020851015620003bc578190505b620003d4620003cb8562000260565b83018262000365565b50505b505050565b600082821c905092915050565b6000620003fc60001984600802620003dc565b1980831691505092915050565b6000620004178383620003e9565b9150826002028217905092915050565b6200043282620001ad565b67ffffffffffffffff8111156200044e576200044d620001b8565b5b6200045a825462000216565b620004678282856200038c565b600060209050601f8311600181146200049f57600084156200048a578287015190505b62000496858262000409565b86555062000506565b601f198416620004af866200024b565b60005b82811015620004d957848901518255600182019150602085019450602081019050620004b2565b86831015620004f95784890151620004f5601f891682620003e9565b8355505b6001600288020188555050505b505050505050565b612b10806200051e6000396000f3fe608060405234801561001057600080fd5b50600436106100ea5760003560e01c806370a082311161008c578063b88d4fde11610066578063b88d4fde1461025b578063c87b56dd14610277578063d85d3d27146102a7578063e985e9c5146102c3576100ea565b806370a08231146101f157806395d89b4114610221578063a22cb4651461023f576100ea565b8063095ea7b3116100c8578063095ea7b31461016d57806323b872dd1461018957806342842e0e146101a55780636352211e146101c1576100ea565b806301ffc9a7146100ef57806306fdde031461011f578063081812fc1461013d575b600080fd5b61010960048036038101906101049190611877565b6102f3565b60405161011691906118bf565b60405180910390f35b6101276103d5565b6040516101349190611973565b60405180910390f35b610157600480360381019061015291906119cb565b610467565b6040516101649190611a39565b60405180910390f35b61018760048036038101906101829190611a80565b6104ad565b005b6101a3600480360381019061019e9190611ac0565b6105c4565b005b6101bf60048036038101906101ba9190611ac0565b610624565b005b6101db60048036038101906101d691906119cb565b610644565b6040516101e89190611a39565b60405180910390f35b61020b60048036038101906102069190611b13565b6106f5565b6040516102189190611b4f565b60405180910390f35b6102296107ac565b6040516102369190611973565b60405180910390f35b61025960048036038101906102549190611b96565b61083e565b005b61027560048036038101906102709190611d0b565b610854565b005b610291600480360381019061028c91906119cb565b6108b6565b60405161029e9190611973565b60405180910390f35b6102c160048036038101906102bc9190611e2f565b6109c8565b005b6102dd60048036038101906102d89190611e78565b610a5c565b6040516102ea91906118bf565b60405180910390f35b60007f80ac58cd000000000000000000000000000000000000000000000000000000007bffffffffffffffffffffffffffffffffffffffffffffffffffffffff1916827bffffffffffffffffffffffffffffffffffffffffffffffffffffffff191614806103be57507f5b5e139f000000000000000000000000000000000000000000000000000000007bffffffffffffffffffffffffffffffffffffffffffffffffffffffff1916827bffffffffffffffffffffffffffffffffffffffffffffffffffffffff1916145b806103ce57506103cd82610af0565b5b9050919050565b6060600080546103e490611ee7565b80601f016020809104026020016040519081016040528092919081815260200182805461041090611ee7565b801561045d5780601f106104325761010080835404028352916020019161045d565b820191906000526020600020905b81548152906001019060200180831161044057829003601f168201915b5050505050905090565b600061047282610b5a565b6004600083815260200190815260200160002060009054906101000a900473ffffffffffffffffffffffffffffffffffffffff169050919050565b60006104b882610644565b90508073ffffffffffffffffffffffffffffffffffffffff168373ffffffffffffffffffffffffffffffffffffffff1603610528576040517f08c379a000000000000000000000000000000000000000000000000000000000815260040161051f90611f8a565b60405180910390fd5b8073ffffffffffffffffffffffffffffffffffffffff16610547610ba5565b73ffffffffffffffffffffffffffffffffffffffff161480610576575061057581610570610ba5565b610a5c565b5b6105b5576040517f08c379a00000000000000000000000000000000000000000000000000000000081526004016105ac9061201c565b60405180910390fd5b6105bf8383610bad565b505050565b6105d56105cf610ba5565b82610c66565b610614576040517f08c379a000000000000000000000000000000000000000000000000000000000815260040161060b906120ae565b60405180910390fd5b61061f838383610cfb565b505050565b61063f83838360405180602001604052806000815250610854565b505050565b6000806002600084815260200190815260200160002060009054906101000a900473ffffffffffffffffffffffffffffffffffffffff169050600073ffffffffffffffffffffffffffffffffffffffff168173ffffffffffffffffffffffffffffffffffffffff16036106ec576040517f08c379a00000000000000000000000000000000000000000000000000000000081526004016106e39061211a565b60405180910390fd5b80915050919050565b60008073ffffffffffffffffffffffffffffffffffffffff168273ffffffffffffffffffffffffffffffffffffffff1603610765576040517f08c379a000000000000000000000000000000000000000000000000000000000815260040161075c906121ac565b60405180910390fd5b600360008373ffffffffffffffffffffffffffffffffffffffff1673ffffffffffffffffffffffffffffffffffffffff168152602001908152602001600020549050919050565b6060600180546107bb90611ee7565b80601f01602080910402602001604051908101604052809291908181526020018280546107e790611ee7565b80156108345780601f1061080957610100808354040283529160200191610834565b820191906000526020600020905b81548152906001019060200180831161081757829003601f168201915b5050505050905090565b610850610849610ba5565b8383610f61565b5050565b61086561085f610ba5565b83610c66565b6108a4576040517f08c379a000000000000000000000000000000000000000000000000000000000815260040161089b906120ae565b60405180910390fd5b6108b0848484846110cd565b50505050565b60606108c182610b5a565b60006006600084815260200190815260200160002080546108e190611ee7565b80601f016020809104026020016040519081016040528092919081815260200182805461090d90611ee7565b801561095a5780601f1061092f5761010080835404028352916020019161095a565b820191906000526020600020905b81548152906001019060200180831161093d57829003601f168201915b50505050509050600061096b611129565b905060008151036109805781925050506109c3565b6000825111156109b557808260405160200161099d929190612208565b604051602081830303815290604052925050506109c3565b6109be84611140565b925050505b919050565b6109d260076111a8565b60006109de60076111be565b90506109ea33826111cc565b6109f481836111ea565b610a21600860009054906101000a900473ffffffffffffffffffffffffffffffffffffffff16600161083e565b7fd9dc24857f317ed9abbbb42e920ede0104231eb1d3d70236a74887ffaf15986881604051610a509190611b4f565b60405180910390a15050565b6000600560008473ffffffffffffffffffffffffffffffffffffffff1673ffffffffffffffffffffffffffffffffffffffff16815260200190815260200160002060008373ffffffffffffffffffffffffffffffffffffffff1673ffffffffffffffffffffffffffffffffffffffff16815260200190815260200160002060009054906101000a900460ff16905092915050565b60007f01ffc9a7000000000000000000000000000000000000000000000000000000007bffffffffffffffffffffffffffffffffffffffffffffffffffffffff1916827bffffffffffffffffffffffffffffffffffffffffffffffffffffffff1916149050919050565b610b6381611257565b610ba2576040517f08c379a0000000000000000000000000000000000000000000000000000000008152600401610b999061211a565b60405180910390fd5b50565b600033905090565b816004600083815260200190815260200160002060006101000a81548173ffffffffffffffffffffffffffffffffffffffff021916908373ffffffffffffffffffffffffffffffffffffffff160217905550808273ffffffffffffffffffffffffffffffffffffffff16610c2083610644565b73ffffffffffffffffffffffffffffffffffffffff167f8c5be1e5ebec7d5bd14f71427d1e84f3dd0314c0f7b2291e5b200ac8c7c3b92560405160405180910390a45050565b600080610c7283610644565b90508073ffffffffffffffffffffffffffffffffffffffff168473ffffffffffffffffffffffffffffffffffffffff161480610cb45750610cb38185610a5c565b5b80610cf257508373ffffffffffffffffffffffffffffffffffffffff16610cda84610467565b73ffffffffffffffffffffffffffffffffffffffff16145b91505092915050565b8273ffffffffffffffffffffffffffffffffffffffff16610d1b82610644565b73ffffffffffffffffffffffffffffffffffffffff1614610d71576040517f08c379a0000000000000000000000000000000000000000000000000000000008152600401610d689061229e565b60405180910390fd5b600073ffffffffffffffffffffffffffffffffffffffff168273ffffffffffffffffffffffffffffffffffffffff1603610de0576040517f08c379a0000000000000000000000000000000000000000000000000000000008152600401610dd790612330565b60405180910390fd5b610deb8383836112c3565b610df6600082610bad565b6001600360008573ffffffffffffffffffffffffffffffffffffffff1673ffffffffffffffffffffffffffffffffffffffff1681526020019081526020016000206000828254610e46919061237f565b925050819055506001600360008473ffffffffffffffffffffffffffffffffffffffff1673ffffffffffffffffffffffffffffffffffffffff1681526020019081526020016000206000828254610e9d91906123b3565b92505081905550816002600083815260200190815260200160002060006101000a81548173ffffffffffffffffffffffffffffffffffffffff021916908373ffffffffffffffffffffffffffffffffffffffff160217905550808273ffffffffffffffffffffffffffffffffffffffff168473ffffffffffffffffffffffffffffffffffffffff167fddf252ad1be2c89b69c2b068fc378daa952ba7f163c4a11628f55a4df523b3ef60405160405180910390a4610f5c8383836112c8565b505050565b8173ffffffffffffffffffffffffffffffffffffffff168373ffffffffffffffffffffffffffffffffffffffff1603610fcf576040517f08c379a0000000000000000000000000000000000000000000000000000000008152600401610fc690612455565b60405180910390fd5b80600560008573ffffffffffffffffffffffffffffffffffffffff1673ffffffffffffffffffffffffffffffffffffffff16815260200190815260200160002060008473ffffffffffffffffffffffffffffffffffffffff1673ffffffffffffffffffffffffffffffffffffffff16815260200190815260200160002060006101000a81548160ff0219169083151502179055508173ffffffffffffffffffffffffffffffffffffffff168373ffffffffffffffffffffffffffffffffffffffff167f17307eab39ab6107e8899845ad3d59bd9653f200f220920489ca2b5937696c31836040516110c091906118bf565b60405180910390a3505050565b6110d8848484610cfb565b6110e4848484846112cd565b611123576040517f08c379a000000000000000000000000000000000000000000000000000000000815260040161111a906124e7565b60405180910390fd5b50505050565b606060405180602001604052806000815250905090565b606061114b82610b5a565b6000611155611129565b9050600081511161117557604051806020016040528060008152506111a0565b8061117f84611454565b604051602001611190929190612208565b6040516020818303038152906040525b915050919050565b6001816000016000828254019250508190555050565b600081600001549050919050565b6111e68282604051806020016040528060008152506115b4565b5050565b6111f382611257565b611232576040517f08c379a000000000000000000000000000000000000000000000000000000000815260040161122990612579565b60405180910390fd5b806006600084815260200190815260200160002090816112529190612745565b505050565b60008073ffffffffffffffffffffffffffffffffffffffff166002600084815260200190815260200160002060009054906101000a900473ffffffffffffffffffffffffffffffffffffffff1673ffffffffffffffffffffffffffffffffffffffff1614159050919050565b505050565b505050565b60006112ee8473ffffffffffffffffffffffffffffffffffffffff1661160f565b15611447578373ffffffffffffffffffffffffffffffffffffffff1663150b7a02611317610ba5565b8786866040518563ffffffff1660e01b8152600401611339949392919061286c565b6020604051808303816000875af192505050801561137557506040513d601f19601f8201168201806040525081019061137291906128cd565b60015b6113f7573d80600081146113a5576040519150601f19603f3d011682016040523d82523d6000602084013e6113aa565b606091505b5060008151036113ef576040517f08c379a00000000000000000000000000000000000000000000000000000000081526004016113e6906124e7565b60405180910390fd5b805181602001fd5b63150b7a0260e01b7bffffffffffffffffffffffffffffffffffffffffffffffffffffffff1916817bffffffffffffffffffffffffffffffffffffffffffffffffffffffff19161491505061144c565b600190505b949350505050565b60606000820361149b576040518060400160405280600181526020017f300000000000000000000000000000000000000000000000000000000000000081525090506115af565b600082905060005b600082146114cd5780806114b6906128fa565b915050600a826114c69190612971565b91506114a3565b60008167ffffffffffffffff8111156114e9576114e8611be0565b5b6040519080825280601f01601f19166020018201604052801561151b5781602001600182028036833780820191505090505b5090505b600085146115a857600182611534919061237f565b9150600a8561154391906129a2565b603061154f91906123b3565b60f81b818381518110611565576115646129d3565b5b60200101907effffffffffffffffffffffffffffffffffffffffffffffffffffffffffffff1916908160001a905350600a856115a19190612971565b945061151f565b8093505050505b919050565b6115be8383611632565b6115cb60008484846112cd565b61160a576040517f08c379a0000000000000000000000000000000000000000000000000000000008152600401611601906124e7565b60405180910390fd5b505050565b6000808273ffffffffffffffffffffffffffffffffffffffff163b119050919050565b600073ffffffffffffffffffffffffffffffffffffffff168273ffffffffffffffffffffffffffffffffffffffff16036116a1576040517f08c379a000000000000000000000000000000000000000000000000000000000815260040161169890612a4e565b60405180910390fd5b6116aa81611257565b156116ea576040517f08c379a00000000000000000000000000000000000000000000000000000000081526004016116e190612aba565b60405180910390fd5b6116f6600083836112c3565b6001600360008473ffffffffffffffffffffffffffffffffffffffff1673ffffffffffffffffffffffffffffffffffffffff168152602001908152602001600020600082825461174691906123b3565b92505081905550816002600083815260200190815260200160002060006101000a81548173ffffffffffffffffffffffffffffffffffffffff021916908373ffffffffffffffffffffffffffffffffffffffff160217905550808273ffffffffffffffffffffffffffffffffffffffff16600073ffffffffffffffffffffffffffffffffffffffff167fddf252ad1be2c89b69c2b068fc378daa952ba7f163c4a11628f55a4df523b3ef60405160405180910390a4611807600083836112c8565b5050565b6000604051905090565b600080fd5b600080fd5b60007fffffffff0000000000000000000000000000000000000000000000000000000082169050919050565b6118548161181f565b811461185f57600080fd5b50565b6000813590506118718161184b565b92915050565b60006020828403121561188d5761188c611815565b5b600061189b84828501611862565b91505092915050565b60008115159050919050565b6118b9816118a4565b82525050565b60006020820190506118d460008301846118b0565b92915050565b600081519050919050565b600082825260208201905092915050565b60005b838110156119145780820151818401526020810190506118f9565b83811115611923576000848401525b50505050565b6000601f19601f8301169050919050565b6000611945826118da565b61194f81856118e5565b935061195f8185602086016118f6565b61196881611929565b840191505092915050565b6000602082019050818103600083015261198d818461193a565b905092915050565b6000819050919050565b6119a881611995565b81146119b357600080fd5b50565b6000813590506119c58161199f565b92915050565b6000602082840312156119e1576119e0611815565b5b60006119ef848285016119b6565b91505092915050565b600073ffffffffffffffffffffffffffffffffffffffff82169050919050565b6000611a23826119f8565b9050919050565b611a3381611a18565b82525050565b6000602082019050611a4e6000830184611a2a565b92915050565b611a5d81611a18565b8114611a6857600080fd5b50565b600081359050611a7a81611a54565b92915050565b60008060408385031215611a9757611a96611815565b5b6000611aa585828601611a6b565b9250506020611ab6858286016119b6565b9150509250929050565b600080600060608486031215611ad957611ad8611815565b5b6000611ae786828701611a6b565b9350506020611af886828701611a6b565b9250506040611b09868287016119b6565b9150509250925092565b600060208284031215611b2957611b28611815565b5b6000611b3784828501611a6b565b91505092915050565b611b4981611995565b82525050565b6000602082019050611b646000830184611b40565b92915050565b611b73816118a4565b8114611b7e57600080fd5b50565b600081359050611b9081611b6a565b92915050565b60008060408385031215611bad57611bac611815565b5b6000611bbb85828601611a6b565b9250506020611bcc85828601611b81565b9150509250929050565b600080fd5b600080fd5b7f4e487b7100000000000000000000000000000000000000000000000000000000600052604160045260246000fd5b611c1882611929565b810181811067ffffffffffffffff82111715611c3757611c36611be0565b5b80604052505050565b6000611c4a61180b565b9050611c568282611c0f565b919050565b600067ffffffffffffffff821115611c7657611c75611be0565b5b611c7f82611929565b9050602081019050919050565b82818337600083830152505050565b6000611cae611ca984611c5b565b611c40565b905082815260208101848484011115611cca57611cc9611bdb565b5b611cd5848285611c8c565b509392505050565b600082601f830112611cf257611cf1611bd6565b5b8135611d02848260208601611c9b565b91505092915050565b60008060008060808587031215611d2557611d24611815565b5b6000611d3387828801611a6b565b9450506020611d4487828801611a6b565b9350506040611d55878288016119b6565b925050606085013567ffffffffffffffff811115611d7657611d7561181a565b5b611d8287828801611cdd565b91505092959194509250565b600067ffffffffffffffff821115611da957611da8611be0565b5b611db282611929565b9050602081019050919050565b6000611dd2611dcd84611d8e565b611c40565b905082815260208101848484011115611dee57611ded611bdb565b5b611df9848285611c8c565b509392505050565b600082601f830112611e1657611e15611bd6565b5b8135611e26848260208601611dbf565b91505092915050565b600060208284031215611e4557611e44611815565b5b600082013567ffffffffffffffff811115611e6357611e6261181a565b5b611e6f84828501611e01565b91505092915050565b60008060408385031215611e8f57611e8e611815565b5b6000611e9d85828601611a6b565b9250506020611eae85828601611a6b565b9150509250929050565b7f4e487b7100000000000000000000000000000000000000000000000000000000600052602260045260246000fd5b60006002820490506001821680611eff57607f821691505b602082108103611f1257611f11611eb8565b5b50919050565b7f4552433732313a20617070726f76616c20746f2063757272656e74206f776e6560008201527f7200000000000000000000000000000000000000000000000000000000000000602082015250565b6000611f746021836118e5565b9150611f7f82611f18565b604082019050919050565b60006020820190508181036000830152611fa381611f67565b9050919050565b7f4552433732313a20617070726f76652063616c6c6572206973206e6f7420746f60008201527f6b656e206f776e6572206e6f7220617070726f76656420666f7220616c6c0000602082015250565b6000612006603e836118e5565b915061201182611faa565b604082019050919050565b6000602082019050818103600083015261203581611ff9565b9050919050565b7f4552433732313a2063616c6c6572206973206e6f7420746f6b656e206f776e6560008201527f72206e6f7220617070726f766564000000000000000000000000000000000000602082015250565b6000612098602e836118e5565b91506120a38261203c565b604082019050919050565b600060208201905081810360008301526120c78161208b565b9050919050565b7f4552433732313a20696e76616c696420746f6b656e2049440000000000000000600082015250565b60006121046018836118e5565b915061210f826120ce565b602082019050919050565b60006020820190508181036000830152612133816120f7565b9050919050565b7f4552433732313a2061646472657373207a65726f206973206e6f74206120766160008201527f6c6964206f776e65720000000000000000000000000000000000000000000000602082015250565b60006121966029836118e5565b91506121a18261213a565b604082019050919050565b600060208201905081810360008301526121c581612189565b9050919050565b600081905092915050565b60006121e2826118da565b6121ec81856121cc565b93506121fc8185602086016118f6565b80840191505092915050565b600061221482856121d7565b915061222082846121d7565b91508190509392505050565b7f4552433732313a207472616e736665722066726f6d20696e636f72726563742060008201527f6f776e6572000000000000000000000000000000000000000000000000000000602082015250565b60006122886025836118e5565b91506122938261222c565b604082019050919050565b600060208201905081810360008301526122b78161227b565b9050919050565b7f4552433732313a207472616e7366657220746f20746865207a65726f2061646460008201527f7265737300000000000000000000000000000000000000000000000000000000602082015250565b600061231a6024836118e5565b9150612325826122be565b604082019050919050565b600060208201905081810360008301526123498161230d565b9050919050565b7f4e487b7100000000000000000000000000000000000000000000000000000000600052601160045260246000fd5b600061238a82611995565b915061239583611995565b9250828210156123a8576123a7612350565b5b828203905092915050565b60006123be82611995565b91506123c983611995565b9250827fffffffffffffffffffffffffffffffffffffffffffffffffffffffffffffffff038211156123fe576123fd612350565b5b828201905092915050565b7f4552433732313a20617070726f766520746f2063616c6c657200000000000000600082015250565b600061243f6019836118e5565b915061244a82612409565b602082019050919050565b6000602082019050818103600083015261246e81612432565b9050919050565b7f4552433732313a207472616e7366657220746f206e6f6e20455243373231526560008201527f63656976657220696d706c656d656e7465720000000000000000000000000000602082015250565b60006124d16032836118e5565b91506124dc82612475565b604082019050919050565b60006020820190508181036000830152612500816124c4565b9050919050565b7f45524337323155524953746f726167653a2055524920736574206f66206e6f6e60008201527f6578697374656e7420746f6b656e000000000000000000000000000000000000602082015250565b6000612563602e836118e5565b915061256e82612507565b604082019050919050565b6000602082019050818103600083015261259281612556565b9050919050565b60008190508160005260206000209050919050565b60006020601f8301049050919050565b600082821b905092915050565b6000600883026125fb7fffffffffffffffffffffffffffffffffffffffffffffffffffffffffffffffff826125be565b61260586836125be565b95508019841693508086168417925050509392505050565b6000819050919050565b600061264261263d61263884611995565b61261d565b611995565b9050919050565b6000819050919050565b61265c83612627565b61267061266882612649565b8484546125cb565b825550505050565b600090565b612685612678565b612690818484612653565b505050565b5b818110156126b4576126a960008261267d565b600181019050612696565b5050565b601f8211156126f9576126ca81612599565b6126d3846125ae565b810160208510156126e2578190505b6126f66126ee856125ae565b830182612695565b50505b505050565b600082821c905092915050565b600061271c600019846008026126fe565b1980831691505092915050565b6000612735838361270b565b9150826002028217905092915050565b61274e826118da565b67ffffffffffffffff81111561276757612766611be0565b5b6127718254611ee7565b61277c8282856126b8565b600060209050601f8311600181146127af576000841561279d578287015190505b6127a78582612729565b86555061280f565b601f1984166127bd86612599565b60005b828110156127e5578489015182556001820191506020850194506020810190506127c0565b8683101561280257848901516127fe601f89168261270b565b8355505b6001600288020188555050505b505050505050565b600081519050919050565b600082825260208201905092915050565b600061283e82612817565b6128488185612822565b93506128588185602086016118f6565b61286181611929565b840191505092915050565b60006080820190506128816000830187611a2a565b61288e6020830186611a2a565b61289b6040830185611b40565b81810360608301526128ad8184612833565b905095945050505050565b6000815190506128c78161184b565b92915050565b6000602082840312156128e3576128e2611815565b5b60006128f1848285016128b8565b91505092915050565b600061290582611995565b91507fffffffffffffffffffffffffffffffffffffffffffffffffffffffffffffffff820361293757612936612350565b5b600182019050919050565b7f4e487b7100000000000000000000000000000000000000000000000000000000600052601260045260246000fd5b600061297c82611995565b915061298783611995565b92508261299757612996612942565b5b828204905092915050565b60006129ad82611995565b91506129b883611995565b9250826129c8576129c7612942565b5b828206905092915050565b7f4e487b7100000000000000000000000000000000000000000000000000000000600052603260045260246000fd5b7f4552433732313a206d696e7420746f20746865207a65726f2061646472657373600082015250565b6000612a386020836118e5565b9150612a4382612a02565b602082019050919050565b60006020820190508181036000830152612a6781612a2b565b9050919050565b7f4552433732313a20746f6b656e20616c7265616479206d696e74656400000000600082015250565b6000612aa4601c836118e5565b9150612aaf82612a6e565b602082019050919050565b60006020820190508181036000830152612ad381612a97565b905091905056fea2646970667358221220e92938a06f91500fbea1aecaf6cfbe9c6d581d10418f8adb402d3a74a96efc9764736f6c634300080f0033",
  "immutableReferences": {},
  "source": "pragma solidity ^0.8.0;\n\nimport \"@openzeppelin/contracts/token/ERC721/extensions/ERC721URIStorage.sol\";\nimport \"@openzeppelin/contracts/utils/Counters.sol\";\n\ncontract Collectible is ERC721URIStorage {\n    using Counters for Counters.Counter;\n\n    Counters.Counter private _tokenIds;\n\n    address marketplaceContract;\n\n    event NFTMinted(uint256);\n\n    mapping(string => uint8) hashes;\n\n    constructor(address _marketplaceContract)\n        public\n        ERC721(\"Collectible\", \"COL\")\n    {\n        marketplaceContract = _marketplaceContract;\n    }\n\n    function mint(string memory _tokenURI) public {\n        _tokenIds.increment();\n        uint256 newTokenId = _tokenIds.current();\n        _safeMint(msg.sender, newTokenId);\n        _setTokenURI(newTokenId, _tokenURI);\n        setApprovalForAll(marketplaceContract, true);\n        emit NFTMinted(newTokenId);\n    }\n}\n",
  "sourcePath": "/Users/sharynneazhar/Development/drizzle_example/contracts/Collectible.sol",
  "compiler": {
    "name": "solc",
    "version": "0.8.15+commit.e14f2714.Emscripten.clang"
  },
  "schemaVersion": "3.4.8",
  "updatedAt": "2022-07-14T19:43:15.217Z",
  "networkType": "ethereum",
  "devdoc": {
    "kind": "dev",
    "methods": {
      "approve(address,uint256)": {
        "details": "See {IERC721-approve}."
      },
      "balanceOf(address)": {
        "details": "See {IERC721-balanceOf}."
      },
      "getApproved(uint256)": {
        "details": "See {IERC721-getApproved}."
      },
      "isApprovedForAll(address,address)": {
        "details": "See {IERC721-isApprovedForAll}."
      },
      "name()": {
        "details": "See {IERC721Metadata-name}."
      },
      "ownerOf(uint256)": {
        "details": "See {IERC721-ownerOf}."
      },
      "safeTransferFrom(address,address,uint256)": {
        "details": "See {IERC721-safeTransferFrom}."
      },
      "safeTransferFrom(address,address,uint256,bytes)": {
        "details": "See {IERC721-safeTransferFrom}."
      },
      "setApprovalForAll(address,bool)": {
        "details": "See {IERC721-setApprovalForAll}."
      },
      "supportsInterface(bytes4)": {
        "details": "See {IERC165-supportsInterface}."
      },
      "symbol()": {
        "details": "See {IERC721Metadata-symbol}."
      },
      "tokenURI(uint256)": {
        "details": "See {IERC721Metadata-tokenURI}."
      },
      "transferFrom(address,address,uint256)": {
        "details": "See {IERC721-transferFrom}."
      }
    },
    "version": 1
  },
  "userdoc": {
    "kind": "user",
    "methods": {},
    "version": 1
  }
}